{
  "contractName": "BookRental",
  "abi": [
    {
      "anonymous": false,
      "inputs": [
        {
          "indexed": false,
          "internalType": "string",
          "name": "message",
          "type": "string"
        }
      ],
      "name": "Debug",
      "type": "event"
    },
    {
      "anonymous": false,
      "inputs": [
        {
          "indexed": true,
          "internalType": "uint256",
          "name": "bookId",
          "type": "uint256"
        },
        {
          "indexed": false,
          "internalType": "string",
          "name": "title",
          "type": "string"
        },
        {
          "indexed": false,
          "internalType": "uint256",
          "name": "dailyPrice",
          "type": "uint256"
        },
        {
          "indexed": false,
          "internalType": "uint256",
          "name": "deposit",
          "type": "uint256"
        },
        {
          "indexed": false,
          "internalType": "address",
          "name": "owner",
          "type": "address"
        }
      ],
      "name": "ItemListed",
      "type": "event"
    },
    {
      "anonymous": false,
      "inputs": [
        {
          "indexed": true,
          "internalType": "uint256",
          "name": "bookId",
          "type": "uint256"
        },
        {
          "indexed": false,
          "internalType": "address",
          "name": "renter",
          "type": "address"
        },
        {
          "indexed": false,
          "internalType": "uint256",
          "name": "rentalStartTime",
          "type": "uint256"
        }
      ],
      "name": "ItemRented",
      "type": "event"
    },
    {
      "anonymous": false,
      "inputs": [
        {
          "indexed": true,
          "internalType": "uint256",
          "name": "bookId",
          "type": "uint256"
        },
        {
          "indexed": false,
          "internalType": "address",
          "name": "renter",
          "type": "address"
        },
        {
          "indexed": false,
          "internalType": "uint256",
          "name": "rentalDuration",
          "type": "uint256"
        },
        {
          "indexed": false,
          "internalType": "uint256",
          "name": "rentalFee",
          "type": "uint256"
        },
        {
          "indexed": false,
          "internalType": "uint256",
          "name": "refund",
          "type": "uint256"
        }
      ],
      "name": "ItemReturned",
      "type": "event"
    },
    {
      "inputs": [
        {
          "internalType": "uint256",
          "name": "",
          "type": "uint256"
        }
      ],
      "name": "books",
      "outputs": [
        {
          "internalType": "string",
          "name": "title",
          "type": "string"
        },
        {
          "internalType": "uint256",
          "name": "dailyPrice",
          "type": "uint256"
        },
        {
          "internalType": "uint256",
          "name": "deposit",
          "type": "uint256"
        },
        {
          "internalType": "address",
          "name": "owner",
          "type": "address"
        },
        {
          "internalType": "address",
          "name": "renter",
          "type": "address"
        },
        {
          "internalType": "uint256",
          "name": "rentalStartTime",
          "type": "uint256"
        },
        {
          "internalType": "uint256",
          "name": "rentalPeriod",
          "type": "uint256"
        },
        {
          "internalType": "bool",
          "name": "isAvailable",
          "type": "bool"
        }
      ],
      "stateMutability": "view",
      "type": "function",
      "constant": true
    },
    {
      "inputs": [
        {
          "internalType": "string",
          "name": "_title",
          "type": "string"
        },
        {
          "internalType": "uint256",
          "name": "_dailyPrice",
          "type": "uint256"
        },
        {
          "internalType": "uint256",
          "name": "_deposit",
          "type": "uint256"
        }
      ],
      "name": "listItem",
      "outputs": [],
      "stateMutability": "nonpayable",
      "type": "function"
    },
    {
      "inputs": [
        {
          "internalType": "uint256",
          "name": "_bookId",
          "type": "uint256"
        }
      ],
      "name": "rentItem",
      "outputs": [],
      "stateMutability": "payable",
      "type": "function",
      "payable": true
    },
    {
      "inputs": [
        {
          "internalType": "uint256",
          "name": "_bookId",
          "type": "uint256"
        }
      ],
      "name": "returnItem",
      "outputs": [],
      "stateMutability": "nonpayable",
      "type": "function"
    },
    {
      "inputs": [
        {
          "internalType": "uint256",
          "name": "_bookId",
          "type": "uint256"
        }
      ],
      "name": "claimDepositIfLate",
      "outputs": [],
      "stateMutability": "nonpayable",
      "type": "function"
    },
    {
      "inputs": [],
      "name": "getAvailableBooks",
      "outputs": [
        {
          "internalType": "uint256[]",
          "name": "",
          "type": "uint256[]"
        }
      ],
      "stateMutability": "view",
      "type": "function",
      "constant": true
    },
    {
      "inputs": [],
      "name": "getMyRentedBooks",
      "outputs": [
        {
          "internalType": "uint256[]",
          "name": "",
          "type": "uint256[]"
        }
      ],
      "stateMutability": "view",
      "type": "function",
      "constant": true
    },
    {
      "inputs": [],
      "name": "getMyListedBooks",
      "outputs": [
        {
          "internalType": "uint256[]",
          "name": "",
          "type": "uint256[]"
        }
      ],
      "stateMutability": "view",
      "type": "function",
      "constant": true
    }
  ],
  "bytecode": "0x608060405234801561001057600080fd5b50600160008190555061206e806100286000396000f3fe60806040526004361061007b5760003560e01c80639cfa925b1161004e5780639cfa925b14610143578063d6c084d91461016c578063d78d385214610197578063f1766279146101b35761007b565b806303a0233014610080578063223ed1dd146100ab578063248e5da0146100d457806368744046146100ff575b600080fd5b34801561008c57600080fd5b506100956101dc565b6040516100a29190611a51565b60405180910390f35b3480156100b757600080fd5b506100d260048036038101906100cd91906115b7565b6103d6565b005b3480156100e057600080fd5b506100e961074c565b6040516100f69190611a51565b60405180910390f35b34801561010b57600080fd5b50610126600480360381019061012191906115b7565b610946565b60405161013a989796959493929190611abf565b60405180910390f35b34801561014f57600080fd5b5061016a600480360381019061016591906115b7565b610a63565b005b34801561017857600080fd5b50610181610c88565b60405161018e9190611a51565b60405180910390f35b6101b160048036038101906101ac91906115b7565b610ede565b005b3480156101bf57600080fd5b506101da60048036038101906101d59190611550565b61117a565b005b60606000805b600254811015610278573373ffffffffffffffffffffffffffffffffffffffff166001600083815260200190815260200160002060040160009054906101000a900473ffffffffffffffffffffffffffffffffffffffff1673ffffffffffffffffffffffffffffffffffffffff16141561026557818061026190611f0b565b9250505b808061027090611f0b565b9150506101e2565b5060008167ffffffffffffffff8111156102bb577f4e487b7100000000000000000000000000000000000000000000000000000000600052604160045260246000fd5b6040519080825280602002602001820160405280156102e95781602001602082028036833780820191505090505b5090506000805b6002548110156103cc573373ffffffffffffffffffffffffffffffffffffffff166001600083815260200190815260200160002060040160009054906101000a900473ffffffffffffffffffffffffffffffffffffffff1673ffffffffffffffffffffffffffffffffffffffff1614156103b9578083838151811061039e577f4e487b7100000000000000000000000000000000000000000000000000000000600052603260045260246000fd5b60200260200101818152505081806103b590611f0b565b9250505b80806103c490611f0b565b9150506102f0565b5081935050505090565b6103de6113d6565b6000600160008381526020019081526020016000209050600073ffffffffffffffffffffffffffffffffffffffff168160030160009054906101000a900473ffffffffffffffffffffffffffffffffffffffff1673ffffffffffffffffffffffffffffffffffffffff161415610489576040517f08c379a000000000000000000000000000000000000000000000000000000000815260040161048090611c04565b60405180910390fd5b8060070160009054906101000a900460ff16156104db576040517f08c379a00000000000000000000000000000000000000000000000000000000081526004016104d290611bc4565b60405180910390fd5b8060040160009054906101000a900473ffffffffffffffffffffffffffffffffffffffff1673ffffffffffffffffffffffffffffffffffffffff163373ffffffffffffffffffffffffffffffffffffffff161461056d576040517f08c379a000000000000000000000000000000000000000000000000000000000815260040161056490611c24565b60405180910390fd5b6000620151806201517f8360050154426105879190611e1b565b6105919190611d3a565b61059b9190611d90565b905060008260010154826105af9190611dc1565b9050826002015481106105c457826002015490505b60008184600201546105d69190611e1b565b905060018460070160006101000a81548160ff02191690831515021790555060008460040160006101000a81548173ffffffffffffffffffffffffffffffffffffffff021916908373ffffffffffffffffffffffffffffffffffffffff160217905550600084600501819055508360030160009054906101000a900473ffffffffffffffffffffffffffffffffffffffff1673ffffffffffffffffffffffffffffffffffffffff166108fc839081150290604051600060405180830381858888f193505050501580156106ad573d6000803e3d6000fd5b5060008111156106ff573373ffffffffffffffffffffffffffffffffffffffff166108fc829081150290604051600060405180830381858888f193505050501580156106fd573d6000803e3d6000fd5b505b847f1d472ba23316884ead92973918da4c4109d089ff5265b78630f0592806992e1d338585856040516107359493929190611a0c565b60405180910390a250505050610749611426565b50565b60606000805b6002548110156107e8573373ffffffffffffffffffffffffffffffffffffffff166001600083815260200190815260200160002060030160009054906101000a900473ffffffffffffffffffffffffffffffffffffffff1673ffffffffffffffffffffffffffffffffffffffff1614156107d55781806107d190611f0b565b9250505b80806107e090611f0b565b915050610752565b5060008167ffffffffffffffff81111561082b577f4e487b7100000000000000000000000000000000000000000000000000000000600052604160045260246000fd5b6040519080825280602002602001820160405280156108595781602001602082028036833780820191505090505b5090506000805b60025481101561093c573373ffffffffffffffffffffffffffffffffffffffff166001600083815260200190815260200160002060030160009054906101000a900473ffffffffffffffffffffffffffffffffffffffff1673ffffffffffffffffffffffffffffffffffffffff161415610929578083838151811061090e577f4e487b7100000000000000000000000000000000000000000000000000000000600052603260045260246000fd5b602002602001018181525050818061092590611f0b565b9250505b808061093490611f0b565b915050610860565b5081935050505090565b600160205280600052604060002060009150905080600001805461096990611ed9565b80601f016020809104026020016040519081016040528092919081815260200182805461099590611ed9565b80156109e25780601f106109b7576101008083540402835291602001916109e2565b820191906000526020600020905b8154815290600101906020018083116109c557829003601f168201915b5050505050908060010154908060020154908060030160009054906101000a900473ffffffffffffffffffffffffffffffffffffffff16908060040160009054906101000a900473ffffffffffffffffffffffffffffffffffffffff16908060050154908060060154908060070160009054906101000a900460ff16905088565b610a6b6113d6565b6000600160008381526020019081526020016000209050600073ffffffffffffffffffffffffffffffffffffffff168160030160009054906101000a900473ffffffffffffffffffffffffffffffffffffffff1673ffffffffffffffffffffffffffffffffffffffff161415610b16576040517f08c379a0000000000000000000000000000000000000000000000000000000008152600401610b0d90611c04565b60405180910390fd5b8060070160009054906101000a900460ff1615610b68576040517f08c379a0000000000000000000000000000000000000000000000000000000008152600401610b5f90611bc4565b60405180910390fd5b600081600601548260050154610b7e9190611d3a565b9050804211610bc2576040517f08c379a0000000000000000000000000000000000000000000000000000000008152600401610bb990611ba4565b60405180910390fd5b60008260020154905060008360040160006101000a81548173ffffffffffffffffffffffffffffffffffffffff021916908373ffffffffffffffffffffffffffffffffffffffff1602179055508260030160009054906101000a900473ffffffffffffffffffffffffffffffffffffffff1673ffffffffffffffffffffffffffffffffffffffff166108fc829081150290604051600060405180830381858888f19350505050158015610c79573d6000803e3d6000fd5b50505050610c85611426565b50565b60606000805b600254811015610d52576001600082815260200190815260200160002060070160009054906101000a900460ff168015610d2b5750600073ffffffffffffffffffffffffffffffffffffffff166001600083815260200190815260200160002060030160009054906101000a900473ffffffffffffffffffffffffffffffffffffffff1673ffffffffffffffffffffffffffffffffffffffff1614155b15610d3f578180610d3b90611f0b565b9250505b8080610d4a90611f0b565b915050610c8e565b5060008167ffffffffffffffff811115610d95577f4e487b7100000000000000000000000000000000000000000000000000000000600052604160045260246000fd5b604051908082528060200260200182016040528015610dc35781602001602082028036833780820191505090505b5090506000805b600254811015610ed4576001600082815260200190815260200160002060070160009054906101000a900460ff168015610e675750600073ffffffffffffffffffffffffffffffffffffffff166001600083815260200190815260200160002060030160009054906101000a900473ffffffffffffffffffffffffffffffffffffffff1673ffffffffffffffffffffffffffffffffffffffff1614155b15610ec15780838381518110610ea6577f4e487b7100000000000000000000000000000000000000000000000000000000600052603260045260246000fd5b6020026020010181815250508180610ebd90611f0b565b9250505b8080610ecc90611f0b565b915050610dca565b5081935050505090565b610ee66113d6565b6000600160008381526020019081526020016000209050600073ffffffffffffffffffffffffffffffffffffffff168160030160009054906101000a900473ffffffffffffffffffffffffffffffffffffffff1673ffffffffffffffffffffffffffffffffffffffff161415610f91576040517f08c379a0000000000000000000000000000000000000000000000000000000008152600401610f8890611c04565b60405180910390fd5b8060070160009054906101000a900460ff16610fe2576040517f08c379a0000000000000000000000000000000000000000000000000000000008152600401610fd990611b84565b60405180910390fd5b8060030160009054906101000a900473ffffffffffffffffffffffffffffffffffffffff1673ffffffffffffffffffffffffffffffffffffffff163373ffffffffffffffffffffffffffffffffffffffff161415611075576040517f08c379a000000000000000000000000000000000000000000000000000000000815260040161106c90611c64565b60405180910390fd5b806001015481600201546110899190611d3a565b3410156110cb576040517f08c379a00000000000000000000000000000000000000000000000000000000081526004016110c290611b44565b60405180910390fd5b338160040160006101000a81548173ffffffffffffffffffffffffffffffffffffffff021916908373ffffffffffffffffffffffffffffffffffffffff16021790555042816005018190555060008160070160006101000a81548160ff021916908315150217905550817f6b058b89d35d7c99eca1411ca5b0a3c2460976131e55184ef63b1a0edc20ec7633426040516111669291906119e3565b60405180910390a250611177611426565b50565b600082116111bd576040517f08c379a00000000000000000000000000000000000000000000000000000000081526004016111b490611b64565b60405180910390fd5b60008111611200576040517f08c379a00000000000000000000000000000000000000000000000000000000081526004016111f790611be4565b60405180910390fd5b60006002600081548092919061121590611f0b565b9190505590506040518061010001604052808581526020018481526020018381526020013373ffffffffffffffffffffffffffffffffffffffff168152602001600073ffffffffffffffffffffffffffffffffffffffff1681526020016000815260200162093a808152602001600115158152506001600083815260200190815260200160002060008201518160000190805190602001906112b8929190611430565b50602082015181600101556040820151816002015560608201518160030160006101000a81548173ffffffffffffffffffffffffffffffffffffffff021916908373ffffffffffffffffffffffffffffffffffffffff16021790555060808201518160040160006101000a81548173ffffffffffffffffffffffffffffffffffffffff021916908373ffffffffffffffffffffffffffffffffffffffff16021790555060a0820151816005015560c0820151816006015560e08201518160070160006101000a81548160ff021916908315150217905550905050807fb38e4b2c45c966220bfb6f48cab1a386230a778f98fb92d900a7dde285f3bd63858585336040516113c89493929190611a73565b60405180910390a250505050565b6002600054141561141c576040517f08c379a000000000000000000000000000000000000000000000000000000000815260040161141390611c44565b60405180910390fd5b6002600081905550565b6001600081905550565b82805461143c90611ed9565b90600052602060002090601f01602090048101928261145e57600085556114a5565b82601f1061147757805160ff19168380011785556114a5565b828001600101855582156114a5579182015b828111156114a4578251825591602001919060010190611489565b5b5090506114b291906114b6565b5090565b5b808211156114cf5760008160009055506001016114b7565b5090565b60006114e66114e184611cb5565b611c84565b9050828152602081018484840111156114fe57600080fd5b611509848285611e97565b509392505050565b600082601f83011261152257600080fd5b81356115328482602086016114d3565b91505092915050565b60008135905061154a81612021565b92915050565b60008060006060848603121561156557600080fd5b600084013567ffffffffffffffff81111561157f57600080fd5b61158b86828701611511565b935050602061159c8682870161153b565b92505060406115ad8682870161153b565b9150509250925092565b6000602082840312156115c957600080fd5b60006115d78482850161153b565b91505092915050565b60006115ec83836119c5565b60208301905092915050565b61160181611e4f565b82525050565b600061161282611cf5565b61161c8185611d18565b935061162783611ce5565b8060005b8381101561165857815161163f88826115e0565b975061164a83611d0b565b92505060018101905061162b565b5085935050505092915050565b61166e81611e61565b82525050565b600061167f82611d00565b6116898185611d29565b9350611699818560208601611ea6565b6116a281612010565b840191505092915050565b60006116ba603383611d29565b91507f496e73756666696369656e74207061796d656e743a206e656564206465706f7360008301527f6974202b206669727374206461792072656e74000000000000000000000000006020830152604082019050919050565b6000611720602283611d29565b91507f4461696c79207072696365206d7573742062652067726561746572207468616e60008301527f20300000000000000000000000000000000000000000000000000000000000006020830152604082019050919050565b6000611786601e83611d29565b91507f426f6f6b206973206e6f7420617661696c61626c6520666f722072656e7400006000830152602082019050919050565b60006117c6602183611d29565b91507f52656e74616c20706572696f6420686173206e6f74207965742065787069726560008301527f64000000000000000000000000000000000000000000000000000000000000006020830152604082019050919050565b600061182c601c83611d29565b91507f426f6f6b206973206e6f742063757272656e746c792072656e746564000000006000830152602082019050919050565b600061186c601e83611d29565b91507f4465706f736974206d7573742062652067726561746572207468616e203000006000830152602082019050919050565b60006118ac601383611d29565b91507f426f6f6b20646f6573206e6f74206578697374000000000000000000000000006000830152602082019050919050565b60006118ec602383611d29565b91507f4f6e6c79207468652072656e7465722063616e2072657475726e20746865206260008301527f6f6f6b00000000000000000000000000000000000000000000000000000000006020830152604082019050919050565b6000611952601f83611d29565b91507f5265656e7472616e637947756172643a207265656e7472616e742063616c6c006000830152602082019050919050565b6000611992602083611d29565b91507f4f776e65722063616e6e6f742072656e74207468656972206f776e20626f6f6b6000830152602082019050919050565b6119ce81611e8d565b82525050565b6119dd81611e8d565b82525050565b60006040820190506119f860008301856115f8565b611a0560208301846119d4565b9392505050565b6000608082019050611a2160008301876115f8565b611a2e60208301866119d4565b611a3b60408301856119d4565b611a4860608301846119d4565b95945050505050565b60006020820190508181036000830152611a6b8184611607565b905092915050565b60006080820190508181036000830152611a8d8187611674565b9050611a9c60208301866119d4565b611aa960408301856119d4565b611ab660608301846115f8565b95945050505050565b6000610100820190508181036000830152611ada818b611674565b9050611ae9602083018a6119d4565b611af660408301896119d4565b611b0360608301886115f8565b611b1060808301876115f8565b611b1d60a08301866119d4565b611b2a60c08301856119d4565b611b3760e0830184611665565b9998505050505050505050565b60006020820190508181036000830152611b5d816116ad565b9050919050565b60006020820190508181036000830152611b7d81611713565b9050919050565b60006020820190508181036000830152611b9d81611779565b9050919050565b60006020820190508181036000830152611bbd816117b9565b9050919050565b60006020820190508181036000830152611bdd8161181f565b9050919050565b60006020820190508181036000830152611bfd8161185f565b9050919050565b60006020820190508181036000830152611c1d8161189f565b9050919050565b60006020820190508181036000830152611c3d816118df565b9050919050565b60006020820190508181036000830152611c5d81611945565b9050919050565b60006020820190508181036000830152611c7d81611985565b9050919050565b6000604051905081810181811067ffffffffffffffff82111715611cab57611caa611fe1565b5b8060405250919050565b600067ffffffffffffffff821115611cd057611ccf611fe1565b5b601f19601f8301169050602081019050919050565b6000819050602082019050919050565b600081519050919050565b600081519050919050565b6000602082019050919050565b600082825260208201905092915050565b600082825260208201905092915050565b6000611d4582611e8d565b9150611d5083611e8d565b9250827fffffffffffffffffffffffffffffffffffffffffffffffffffffffffffffffff03821115611d8557611d84611f54565b5b828201905092915050565b6000611d9b82611e8d565b9150611da683611e8d565b925082611db657611db5611f83565b5b828204905092915050565b6000611dcc82611e8d565b9150611dd783611e8d565b9250817fffffffffffffffffffffffffffffffffffffffffffffffffffffffffffffffff0483118215151615611e1057611e0f611f54565b5b828202905092915050565b6000611e2682611e8d565b9150611e3183611e8d565b925082821015611e4457611e43611f54565b5b828203905092915050565b6000611e5a82611e6d565b9050919050565b60008115159050919050565b600073ffffffffffffffffffffffffffffffffffffffff82169050919050565b6000819050919050565b82818337600083830152505050565b60005b83811015611ec4578082015181840152602081019050611ea9565b83811115611ed3576000848401525b50505050565b60006002820490506001821680611ef157607f821691505b60208210811415611f0557611f04611fb2565b5b50919050565b6000611f1682611e8d565b91507fffffffffffffffffffffffffffffffffffffffffffffffffffffffffffffffff821415611f4957611f48611f54565b5b600182019050919050565b7f4e487b7100000000000000000000000000000000000000000000000000000000600052601160045260246000fd5b7f4e487b7100000000000000000000000000000000000000000000000000000000600052601260045260246000fd5b7f4e487b7100000000000000000000000000000000000000000000000000000000600052602260045260246000fd5b7f4e487b7100000000000000000000000000000000000000000000000000000000600052604160045260246000fd5b6000601f19601f8301169050919050565b61202a81611e8d565b811461203557600080fd5b5056fea2646970667358221220a7ff9c811471daad89fa557514b95ccbaa106185563707f32bd0b2186eb5f2f064736f6c63430008000033",
  "immutableReferences": {},
  "source": "// SPDX-License-Identifier: MIT\r\npragma solidity ^0.8.0;\r\n\r\nimport \"@openzeppelin/contracts/security/ReentrancyGuard.sol\";\r\n\r\ncontract BookRental is ReentrancyGuard {\r\n    // Book struct to store book information\r\n    struct Book {\r\n        string title;\r\n        uint256 dailyPrice;\r\n        uint256 deposit;\r\n        address owner;\r\n        address renter;\r\n        uint256 rentalStartTime;\r\n        uint256 rentalPeriod;\r\n        bool isAvailable;\r\n    }\r\n    \r\n    // Mapping from book ID to Book struct\r\n    mapping(uint256 => Book) public books;\r\n    \r\n    // Counter for book IDs\r\n    uint256 private _nextBookId;\r\n    \r\n    // Events\r\n    event ItemListed(uint256 indexed bookId, string title, uint256 dailyPrice, uint256 deposit, address owner);\r\n    event ItemRented(uint256 indexed bookId, address renter, uint256 rentalStartTime);\r\n    event ItemReturned(uint256 indexed bookId, address renter, uint256 rentalDuration, uint256 rentalFee, uint256 refund);\r\n    event Debug(string message);\r\n    /**\r\n     * @dev List a new book for rental\r\n     * @param _title Title of the book\r\n     * @param _dailyPrice Daily rental price in wei\r\n     * @param _deposit Required deposit amount in wei\r\n     */\r\n    function listItem(string memory _title, uint256 _dailyPrice, uint256 _deposit) external {\r\n        require(_dailyPrice > 0, \"Daily price must be greater than 0\");\r\n        require(_deposit > 0, \"Deposit must be greater than 0\");\r\n        \r\n        uint256 bookId = _nextBookId++;\r\n        \r\n        books[bookId] = Book({\r\n            title: _title,\r\n            dailyPrice: _dailyPrice,\r\n            deposit: _deposit,\r\n            owner: msg.sender,\r\n            renter: address(0),\r\n            rentalStartTime: 0,\r\n            rentalPeriod: 7 days,\r\n            isAvailable: true\r\n        });\r\n        \r\n        emit ItemListed(bookId, _title, _dailyPrice, _deposit, msg.sender);\r\n    }\r\n    \r\n    /**\r\n     * @dev Rent a book\r\n     * @param _bookId ID of the book to rent\r\n     */\r\n    function rentItem(uint256 _bookId) external payable nonReentrant {\r\n        Book storage book = books[_bookId];\r\n        \r\n        require(book.owner != address(0), \"Book does not exist\");\r\n        require(book.isAvailable, \"Book is not available for rent\");\r\n        require(msg.sender != book.owner, \"Owner cannot rent their own book\");\r\n        require(msg.value >= book.deposit + book.dailyPrice, \"Insufficient payment: need deposit + first day rent\");\r\n        \r\n        \r\n        // Update book status\r\n        book.renter = msg.sender;\r\n        book.rentalStartTime = block.timestamp;\r\n        book.isAvailable = false;\r\n        \r\n        emit ItemRented(_bookId, msg.sender, block.timestamp);\r\n    }\r\n    \r\n    /**\r\n     * @dev Return a rented book and process the refund\r\n     * @param _bookId ID of the book to return\r\n     */\r\n    function returnItem(uint256 _bookId) external nonReentrant {\r\n        Book storage book = books[_bookId];\r\n        \r\n        require(book.owner != address(0), \"Book does not exist\");\r\n        require(!book.isAvailable, \"Book is not currently rented\");\r\n        require(msg.sender == book.renter, \"Only the renter can return the book\");\r\n        \r\n        // Calculate rental duration in days (rounded up)\r\n        uint256 duration = (block.timestamp - book.rentalStartTime + 86399) / 86400; // 86400 seconds in a day, +86399 to round up\r\n        \r\n        // Calculate rental fee\r\n        uint256 rentalFee = duration * book.dailyPrice;\r\n        \r\n        // If rental fee exceeds deposit, take the whole deposit\r\n        if (rentalFee >= book.deposit) {\r\n            rentalFee = book.deposit;\r\n        }\r\n        \r\n        // Calculate refund\r\n        uint256 refundAmount = book.deposit - rentalFee;\r\n        \r\n        // Reset book status\r\n        book.isAvailable = true;\r\n        book.renter = address(0);\r\n        book.rentalStartTime = 0;\r\n        \r\n        // Process payments\r\n        payable(book.owner).transfer(rentalFee);\r\n        \r\n        if (refundAmount > 0) {\r\n            payable(msg.sender).transfer(refundAmount);\r\n        }\r\n        \r\n        emit ItemReturned(_bookId, msg.sender, duration, rentalFee, refundAmount);\r\n    }\r\n    /**\r\n * @dev Claim the full deposit if the renter failed to return the book in time\r\n * @param _bookId ID of the book to claim deposit for\r\n */\r\nfunction claimDepositIfLate(uint256 _bookId) external nonReentrant {\r\n    Book storage book = books[_bookId];\r\n\r\n    require(book.owner != address(0), \"Book does not exist\");\r\n    require(!book.isAvailable, \"Book is not currently rented\");\r\n\r\n    uint256 expectedEndTime = book.rentalStartTime + book.rentalPeriod;\r\n    require(block.timestamp > expectedEndTime, \"Rental period has not yet expired\");\r\n\r\n    // address renter = book.renter;\r\n    uint256 depositAmount = book.deposit;\r\n\r\n    // Reset book\r\n    // book.isAvailable = true;\r\n    book.renter = address(0);\r\n    // book.rentalStartTime = 0;\r\n    // book.rentalPeriod = 0;\r\n\r\n    // Transfer full deposit to owner\r\n    payable(book.owner).transfer(depositAmount);\r\n\r\n    //emit Claim(_bookId, msg.sender, duration, rentalFee, refundAmount);\r\n}\r\n\r\n    \r\n    /**\r\n     * @dev Get the list of available books\r\n     * @return Array of book IDs that are available for rent\r\n     */\r\n    function getAvailableBooks() external view returns (uint256[] memory) {\r\n        uint256 availableCount = 0;\r\n        \r\n        // Count available books\r\n        for (uint256 i = 0; i < _nextBookId; i++) {\r\n            if (books[i].isAvailable && books[i].owner != address(0)) {\r\n                availableCount++;\r\n            }\r\n        }\r\n        \r\n        // Create array of available book IDs\r\n        uint256[] memory result = new uint256[](availableCount);\r\n        uint256 index = 0;\r\n        \r\n        for (uint256 i = 0; i < _nextBookId; i++) {\r\n            if (books[i].isAvailable && books[i].owner != address(0)) {\r\n                result[index] = i;\r\n                index++;\r\n            }\r\n        }\r\n        \r\n        return result;\r\n    }\r\n    \r\n    /**\r\n     * @dev Get the list of books rented by the caller\r\n     * @return Array of book IDs rented by the caller\r\n     */\r\n    function getMyRentedBooks() external view returns (uint256[] memory) {\r\n        uint256 rentedCount = 0;\r\n        \r\n        // Count rented books\r\n        for (uint256 i = 0; i < _nextBookId; i++) {\r\n            if (books[i].renter == msg.sender) {\r\n                rentedCount++;\r\n            }\r\n        }\r\n        \r\n        // Create array of rented book IDs\r\n        uint256[] memory result = new uint256[](rentedCount);\r\n        uint256 index = 0;\r\n        \r\n        for (uint256 i = 0; i < _nextBookId; i++) {\r\n            if (books[i].renter == msg.sender) {\r\n                result[index] = i;\r\n                index++;\r\n            }\r\n        }\r\n        \r\n        return result;\r\n    }\r\n    \r\n    /**\r\n     * @dev Get the list of books owned by the caller\r\n     * @return Array of book IDs owned by the caller\r\n     */\r\n    function getMyListedBooks() external view returns (uint256[] memory) {\r\n        uint256 ownedCount = 0;\r\n        \r\n        // Count owned books\r\n        for (uint256 i = 0; i < _nextBookId; i++) {\r\n            if (books[i].owner == msg.sender) {\r\n                ownedCount++;\r\n            }\r\n        }\r\n        \r\n        // Create array of owned book IDs\r\n        uint256[] memory result = new uint256[](ownedCount);\r\n        uint256 index = 0;\r\n        \r\n        for (uint256 i = 0; i < _nextBookId; i++) {\r\n            if (books[i].owner == msg.sender) {\r\n                result[index] = i;\r\n                index++;\r\n            }\r\n        }\r\n        \r\n        return result;\r\n    }\r\n}",
  "sourcePath": "/Users/abinashacharya/project_1/contracts/BookRental.sol",
  "compiler": {
    "name": "solc",
    "version": "0.8.0+commit.c7dfd78e.Emscripten.clang"
  },
  "schemaVersion": "3.4.16",
  "updatedAt": "2025-04-26T07:02:02.485Z",
  "networkType": "ethereum",
  "devdoc": {
    "kind": "dev",
    "methods": {
      "claimDepositIfLate(uint256)": {
        "details": "Claim the full deposit if the renter failed to return the book in time",
        "params": {
          "_bookId": "ID of the book to claim deposit for"
        }
      },
      "getAvailableBooks()": {
        "details": "Get the list of available books",
        "returns": {
          "_0": "Array of book IDs that are available for rent"
        }
      },
      "getMyListedBooks()": {
        "details": "Get the list of books owned by the caller",
        "returns": {
          "_0": "Array of book IDs owned by the caller"
        }
      },
      "getMyRentedBooks()": {
        "details": "Get the list of books rented by the caller",
        "returns": {
          "_0": "Array of book IDs rented by the caller"
        }
      },
      "listItem(string,uint256,uint256)": {
        "details": "List a new book for rental",
        "params": {
          "_dailyPrice": "Daily rental price in wei",
          "_deposit": "Required deposit amount in wei",
          "_title": "Title of the book"
        }
      },
      "rentItem(uint256)": {
        "details": "Rent a book",
        "params": {
          "_bookId": "ID of the book to rent"
        }
      },
      "returnItem(uint256)": {
        "details": "Return a rented book and process the refund",
        "params": {
          "_bookId": "ID of the book to return"
        }
      }
    },
    "version": 1
  },
  "userdoc": {
    "kind": "user",
    "methods": {},
    "version": 1
  }
}